:020000040800F2
:10000000002800204D140008A9130008AF130008B1
:10001000B5130008BB130008C1130008000000005E
:10002000000000000000000000000000C7130008EE
:10003000D313000800000000DF130008EB130008D2
:1000400095140008951400089514000895140008EC
:1000500095140008951400089514000895140008DC
:1000600095140008951400089514000895140008CC
:1000700095140008951400089514000895140008BC
:1000800095140008951400089514000895140008AC
:10009000951400089514000895140008951400089C
:1000A000951400089514000895140008951400088C
:1000B000F9130008951400080000000095140008CA
:1000C00095140008000000000000000095140008CE
:1000D00000000000951400089514000800000000BE
:1000E00095140008951400089514000800000000FD
:1000F0000000000000000000000000000000000000
:0C01000000000000000000005FF808F1A3
:10010C0010B5054C237833B9044B13B10448AFF345
:10011C0000800123237010BD2C0000200000000083
:10012C00BC2A000808B5034B1BB103490348AFF3C5
:10013C00008008BD0000000030000020BC2A000830
:10014C0080B500AFAF4B1B78062B00F2EF8401A2F9
:10015C0052F823F07D010008CD020008310400089C
:10016C008B0500080907000859080008CD0900088C
:10017C00A54B1B68012B40F08780FA2000F0E8FFAC
:10018C00A24B1B68032B00F2818001A252F823F0D2
:10019C00AD010008E70100081D0200084702000835
:1001AC009B4B1A689B4B1B68D31A9B4A82FB03120E
:1001BC009210DB17D31A1946002000F0FDFE934B6A
:1001CC001B680133914A136000F062FF002000F0BD
:1001DC0075FF012000F0A4FF5BE08D4B1A688D4B7E
:1001EC001B68D21A8C4B83FB02139910D317C91AB4
:1001FC000B469B000B445B00D11A0B4619460120A1
:10020C0000F0DAFE814B1B680133804A136040E03A
:10021C00824B1A687F4B1B68D31A7F4A82FB0312EE
:10022C009210DB17D31A1946022000F0C5FE774B4B
:10023C001B680133754A13602BE0784B1A68754BB9
:10024C001B68D21A744B83FB02139910D317C91A6B
:10025C000B469B000B445B00D11A0B46194603203E
:10026C0000F0AAFE694B00221A606A4B1B6801332E
:10027C00684A1360674B1A68684B1B689A4207D12F
:10028C00604B01221A7003E000BF02E000BF00E0E7
:10029C0000BF002000F0DEFC0346002B00F0398488
:1002AC005F4B1B68012B40F03484564B04221A70B0
:1002BC00554B01221A60C82000F07EFF00F029BCCB
:1002CC00514B1B68012B40F08780FA2000F040FF57
:1002DC004E4B1B68032B00F2818001A252F823F0D5
:1002EC00FD020008370300086D030008970300089F
:1002FC00474B1A68474B1B68D31A474A82FB0312B9
:10030C009210DB17D31A1946002000F055FE3F4B14
:10031C001B6801333D4A136000F0BAFE002000F068
:10032C00CDFE012000F0E2FE5BE0394B1A68394B40
:10033C001B68D21A384B83FB02139910D317C91AB6
:10034C000B469B000B445B00D11A0B46194601204F
:10035C0000F032FE2D4B1B6801332C4A136040E039
:10036C002B4B1A682B4B1B68D31A2B4A82FB03129C
:10037C009210DB17D31A1946022000F01DFE234BF6
:10038C001B680133214A13602BE0214B1A68214B67
:10039C001B68D21A204B83FB02139910D317C91A6E
:1003AC000B469B000B445B00D11A0B4619460320ED
:1003BC0000F002FE154B00221A60164B1B6801332D
:1003CC00144A1360134B1A68114B1B689A4207D1DD
:1003DC000C4B02221A7003E000BF02E000BF00E0E9
:1003EC0000BF002000F036FC0346002B00F0938386
:1003FC00044B04221A70044B01221A60C82000F02E
:10040C00DBFE88E3480000206C0000205000002038
:10041C00000000204C000020676666660400002087
:10042C0074000020AD4B1B68012B40F09280FA2029
:10043C0000F08EFEAA4B1B68032B00F28C8001A2ED
:10044C0052F823F061040008A1040008DD04000840
:10045C0009050008A34B1A68A34B1B681A44A34B4D
:10046C001B68D31AA24A82FB03129210DB17D31A11
:10047C001946002000F0A0FD994B1B680133984AE7
:10048C00136000F005FE002000F04AFE012000F091
:10049C0015FE63E0934B1A68934B1B681A44934BFD
:1004AC001B68D21A924B83FB02139910D317C91AEB
:1004BC000B469B000B445B00D11A0B4619460120DE
:1004CC0000F07AFD864B1B680133854A136045E0CA
:1004DC00844B1B685A00854B1B68D31A844A82FBD9
:1004EC0003129210DB17D31A1946022000F064FD98
:1004FC007B4B1B6801337A4A13602FE0794B1B68E6
:10050C005A007A4B1B68D21A794B83FB0213991051
:10051C00D317C91A0B469B000B445B00D11A0B4630
:10052C001946032000F048FD6D4B00221A606F4BFA
:10053C001B6801336D4A13606A4B1A686A4B1B685F
:10054C001A446A4B1B689A4207D16A4B03221A70F1
:10055C0003E000BF02E000BF00E000BF002000F09D
:10056C0079FB0346002B00F0D882624B04221A70F0
:10057C005A4B01221A60C82000F01EFECDE2574BE8
:10058C001B68012B40F09080FA2000F0E1FD544BE9
:10059C001B68032B00F28A8001A252F823F000BFE3
:1005AC00BD050008F9050008310600085D060008C5
:1005BC004C4B1B685A004D4B1B68D31A4C4A82FBA0
:1005CC0003129210DB17D31A1946002000F0F4FC2A
:1005DC00434B1B680133424A136000F059FD002065
:1005EC0000F084FD012000F069FD62E03D4B1B68CA
:1005FC005A003E4B1B68D21A3D4B83FB02139910D9
:10060C00D317C91A0B469B000B445B00D11A0B463F
:10061C001946012000F0D0FC314B1B680133304AE5
:10062C00136046E02F4B1B685A00304B1B68D31AE3
:10063C002F4A82FB03129210DB17D31A19460220A1
:10064C0000F0BAFC264B1B680133254A136030E0DE
:10065C00244B1B685A00254B1B68D21A244B83FB76
:10066C0002139910D317C91A0B469B000B445B005D
:10067C00D11A0B461946032000F09EFC184B0022A1
:10068C001A601A4B1B680133184A1360154B1B6810
:10069C005A00164B1B689A420AD1164B00221A704C
:1006AC00124B00221A6003E000BF02E000BF00E022
:1006BC0000BF002000F0CEFA0346002B00F02F8282
:1006CC000C4B04221A700C4B00221A60034B0122B3
:1006DC001A60C82000F070FD21E200BF6C00002001
:1006EC005000002000000020040000204C000020DE
:1006FC00676666664800002054000020A74B1B6804
:10070C00012B57D1FA2000F023FDA54B1B68032BBE
:10071C0052D801A252F823F0350700084D07000803
:10072C00610700088F07000800F0C0FB00210020C3
:10073C0000F042FC9A4B1B680133994A13603CE071
:10074C000221012000F038FC954B1B680133944AC0
:10075C00136032E000F0AAFB924B1A68924B1B68B4
:10076C001344924A82FB03129210DB17D31A1946D8
:10077C00022000F021FC8A4B1B680133884A13606D
:10078C001BE0884B1A68884B1B681A44874B83FB09
:10079C0002139910D317C91A0B469B000B445B002C
:1007AC00D11A0B461946032000F006FC7C4B0022A4
:1007BC001A6002E000BF00E000BF002000F04AFA1F
:1007CC000346002B0FD07A4B1B68002B0BD0794BB8
:1007DC0005221A70744B00221A60C82000F0ECFC41
:1007EC006E4B01221A60012000F034FA0346002BF4
:1007FC0012D0714B1B68002B0ED0C82000F010FDDE
:10080C00694B1A68674B1B681344622B04DC664BFC
:10081C001B680133644A1360022000F01BFA034684
:10082C00002B00F07E81644B1B68002B00F079815B
:10083C00C82000F0F5FC5B4B1A685B4B1B6813443B
:10084C00584A1360584B00221A606AE1534B1B68DC
:10085C00012B57D1FA2000F07BFC514B1B68032B6A
:10086C0052D801A252F823F0850800089D08000810
:10087C00B1080008DF08000800F044FB002100204C
:10088C0000F09AFB464B1B680133454A13603CE071
:10089C000321012000F090FB414B1B680133404ABF
:1008AC00136032E000F02EFB444B1A683E4B1B6881
:1008BC0013443E4A82FB03129210DB17D31A1946DB
:1008CC00022000F079FB364B1B680133344A13606D
:1008DC001BE03A4B1A68344B1B681A44334B83FBAE
:1008EC0002139910D317C91A0B469B000B445B00DB
:1008FC00D11A0B461946032000F05EFB284B002250
:10090C001A6002E000BF00E000BF002000F0A2F976
:10091C000346002B0FD0264B1B68002B0BD0254B0E
:10092C0006221A70204B00221A60C82000F044FCEA
:10093C001A4B01221A60012000F08CF90346002B9F
:10094C0012D01D4B1B68002B0ED0C82000F068FC89
:10095C00154B1A68194B1B681344622B04DC124BA1
:10096C001B680133104A1360022000F073F9034630
:10097C00002B00F0D880104B1B68002B00F0D380AC
:10098C00C82000F04DFC0D4B1A68074B1B68134434
:10099C000A4A1360044B00221A60C4E06C00002069
:1009AC00500000200000002054000020676666669E
:1009BC0074000020480000207C000020080000206B
:1009CC005B4B1B68012B57D1FA2000F0C1FB594B34
:1009DC001B68032B52D801A252F823F0F909000826
:1009EC00110A0008250A0008530A000800F0B8FA9A
:1009FC000021002000F0E0FA4E4B1B6801334D4AF9
:100A0C0013603CE00421012000F0D6FA494B1B682E
:100A1C000133484A136032E000F0A2FA464B1A68E0
:100A2C00464B1B681344464A82FB03129210DB1799
:100A3C00D31A1946022000F0BFFA3E4B1B68013353
:100A4C003C4A13601BE03C4B1A683C4B1B681A4435
:100A5C003B4B83FB02139910D317C91A0B469B000F
:100A6C000B445B00D11A0B461946032000F0A4FA84
:100A7C00304B00221A6002E000BF00E000BF0020F3
:100A8C0000F0E8F80346002B12D02E4B1B68002B0D
:100A9C000ED02D4B00221A70C82000F08DFB244B79
:100AAC0001221A60294B00221A60224B00221A6084
:100ABC00012000F0CFF80346002B12D0244B1B680A
:100ACC00002B0ED0C82000F0ABFB1C4B1A681A4B45
:100ADC001B681344622B04DC184B1B680133174A48
:100AEC001360022000F0B6F80346002B1DD0184B03
:100AFC001B68002B19D0C82000F092FB0E4B1A6813
:100B0C000E4B1B6813440C4A13600C4B00221A60EA
:100B1C000BE000BF0AE000BF08E000BF06E000BF2A
:100B2C0004E000BF02E000BF00E000BF00BF80BDDA
:100B3C006C00002050000020040000205400002015
:100B4C006766666674000020480000204C00002098
:100B5C007C00002090B583B000AF0023FB7165E0F2
:100B6C00FA79FB793549895C354AD154FB79022BEA
:100B7C001CD0022B25DC002B02D0012B0BD020E04B
:100B8C00FC794FF400512F4800F06AFF03461A46D7
:100B9C002A4B1A5516E0FC794FF48041294800F095
:100BAC005FFF03461A46254B1A550BE0FC794FF4B0
:100BBC000041244800F054FF03461A461F4B1A55B7
:100BCC0000E000BFFB791D4AD25CFB791C49CB5C71
:100BDC009A4205D1FA79FB791849895C1A4AD154A1
:100BEC00FB79194AD35C002B14D1FB79174A32F8E4
:100BFC001330632B09D8FB79144A32F813200132D5
:100C0C0091B2124A22F813100DE0FB79104A01211F
:100C1C00D15408E0FB790D4A002122F81310FB791E
:100C2C000B4A0021D154FB790133FB71FB79022B68
:100C3C0096D900BF00BF0C37BD4690BD58000020B0
:100C4C005C000020000801400C0000206400002023
:100C5C006000002080B483B000AF0346FB71FB79C9
:100C6C00022B01D9002307E0FB79064AD35C002B49
:100C7C000CBF01230023DBB218460C37BD4680BCE9
:100C8C00704700BF0C00002080B500AF00F0FEFBE9
:100C9C0000F01CF800F0A2F800F054F8074801F03E
:100CAC0047FB074B01221A60064B01221A60064BC8
:100CBC0001221A60FFF744FAFCE700BF9400002001
:100CCC006C000020740000207C00002080B590B0E7
:100CDC0000AF07F1180328220021184601F0E0FEAE
:100CEC003B1D00221A605A609A60DA601A61022376
:100CFC00BB610123BB621023FB6200237B6307F102
:100D0C001803184600F0DCFE0346002B01D000F05F
:100D1C00C7F80F237B600023BB600023FB6000231C
:100D2C003B6100237B613B1D0021184601F048F913
:100D3C000346002B01D000F0B3F800BF4037BD468E
:100D4C0080BD000080B586B000AF07F1080300221B
:100D5C001A605A609A60DA603B4600221A605A6048
:100D6C001D4B4FF080421A601B4B41F63F725A608C
:100D7C00194B00229A60184B0A22DA60164B00229B
:100D8C001A61154B00229A61134801F081FA03464F
:100D9C00002B01D000F084F84FF48053BB6007F1B6
:100DAC00080319460C4801F017FC0346002B01D030
:100DBC0000F076F800233B6000237B603B4619462D
:100DCC00054801F0DFFD0346002B01D000F068F868
:100DDC0000BF1837BD4680BD9400002080B586B09A
:100DEC0000AF07F1080300221A605A609A60DA60BB
:100DFC00284B9B69274A43F004039361254B9B695D
:100E0C0003F004037B607B68224B9B69214A43F00F
:100E1C00080393611F4B9B6903F008033B603B681D
:100E2C00002241F6F8711C4800F031FE00227F21AF
:100E3C001A4800F02CFE41F6F873BB600123FB60EE
:100E4C0000233B6102237B6107F10803194612481A
:100E5C0000F08CFC7F23BB600123FB6000233B6113
:100E6C0002237B6107F1080319460C4800F07EFC55
:100E7C004FF46043BB600023FB6001233B6107F12F
:100E8C0008031946044800F071FC00BF1837BD4632
:100E9C0080BD00BF0010024000080140000C014062
:100EAC0080B400AF72B600BFFEE7000080B500AFA3
:100EBC00124B1B68012B05D101221821104800F0A0
:100ECC00E6FD04E0002218210D4800F0E0FD0B4B7C
:100EDC001B68002B0CBF01230023DBB21A46074B07
:100EEC001A6000224FF4C071054800F0D0FD0022BA
:100EFC006021034800F0CBFD00BF80BD1000002036
:100F0C000008014080B500AF134B1B68012B06D1C4
:100F1C0001224FF4C071114800F0B9FD05E0002228
:100F2C004FF4C0710D4800F0B2FD0B4B1B68002B49
:100F3C000CBF01230023DBB21A46074B1A600022B8
:100F4C001821064800F0A3FD00226021034800F0A0
:100F5C009EFD00BF80BD00BF1400002000080140B2
:100F6C0080B500AF124B1B68012B05D1012260210B
:100F7C00104800F08CFD04E0002260210D4800F0C8
:100F8C0086FD0B4B1B68002B0CBF01230023DBB22F
:100F9C001A46074B1A6000221821064800F077FD0C
:100FAC0000224FF4C071034800F071FD00BF80BDFA
:100FBC00180000200008014080B586B000AF7860B2
:100FCC0039607B68032B3FD801A252F823F000BF95
:100FDC00ED0F000807100008211000083B10000856
:100FEC0000224FF40071274800F051FD01224FF40C
:100FFC00E051244800F04BFD27E000224FF48061C3
:10100C00204800F044FD01224FF4D0511D4800F05F
:10101C003EFD1AE000224FF400611A4800F037FD43
:10102C0001224FF4B051174800F031FD0DE00022C1
:10103C004FF48051134800F02AFD01224FF46061F7
:10104C00104800F024FD00E000BF0F4A07F10C032C
:10105C0007CA03C31A800D4BDA680C494FF680732C
:10106C001340CB60094BDB6807F10C013A680A446A
:10107C0012781146054A0B43D36000BF1837BD46A2
:10108C0080BD00BF00080140D42A0008000C0140BC
:10109C0080B500AF00226021074800F0F8FC002268
:1010AC004FF4C071044800F0F2FC002218210248F1
:1010BC0000F0EDFC00BF80BD0008014080B582B09F
:1010CC0000AF78607B68002B05D10122082106480F
:1010DC0000F0DDFC04E001221021034800F0D7FCF5
:1010EC0000BF0837BD4680BD0008014080B582B006
:1010FC0000AF78607B68002B05D101228021074866
:10110C0000F0C5FC05E001224FF48071034800F0AB
:10111C00BEFC00BF0837BD4680BD00BF00080140C3
:10112C0080B582B000AF78607B68002B05D10122BE
:10113C002021064800F0ABFC04E0012240210348CA
:10114C0000F0A5FC00BF0837BD4680BD000801407B
:10115C0080B483B000AF7860074B1B687A6892FB51
:10116C00F3F3064A1360064B00221A6000BF0C37DB
:10117C00BD4680BC704700BF1C00002070000020E2
:10118C006C00002080B400AF094B1B68002B0BDDFA
:10119C00074B1B68013B064A1360054B1B68002B71
:1011AC0002D1044B01221A6000BFBD4680BC7047BF
:1011BC00700000206C00002080B483B000AF786019
:1011CC00074B1B687A6892FBF3F3064A1360064BD5
:1011DC0000221A6000BF0C37BD4680BC704700BFB0
:1011EC001C000020780000207400002080B400AFA8
:1011FC00094B1B68002B0BDD074B1B68013B064A98
:10120C001360054B1B68002B02D1044B01221A60A2
:10121C0000BFBD4680BC70477800002074000020E1
:10122C0080B483B000AF7860074B1B687A6892FB80
:10123C00F3F3064A1360064B00221A6000BF0C370A
:10124C00BD4680BC704700BF1C0000208000002001
:10125C007C00002080B400AF094B1B68002B0BDD19
:10126C00074B1B68013B064A1360054B1B68002BA0
:10127C0002D1044B01221A6000BFBD4680BC7047EE
:10128C00800000207C00002080B400AF094B1B685C
:10129C00002B0BDD074B1B68013B064A1360054B0B
:1012AC001B68002B02D1044B01221A6000BFBD4603
:1012BC0080BC7047880000208400002080B400AF00
:1012CC00094B1B68002B0BDD074B1B68013B064AC7
:1012DC001360054B1B68002B02D1044B01221A60D2
:1012EC0000BFBD4680BC7047900000208C000020E1
:1012FC0080B485B000AF154B9B69144A43F00103D1
:10130C009361124B9B6903F00103BB60BB680F4BED
:10131C00DB690E4A43F08053D3610C4BDB6903F05D
:10132C0080537B607B680A4B5B68FB60FB6823F037
:10133C00E063FB60FB6843F08063FB60044AFB687E
:10134C00536000BF1437BD4680BC7047001002408C
:10135C000000014080B584B000AF78607B681B68EA
:10136C00B3F1804F13D10C4BDB690B4A43F00103F3
:10137C00D361094BDB6903F00103FB60FB680022BE
:10138C0000211C2000F0BBF91C2000F0D4F900BF98
:10139C001037BD4680BD00BF0010024080B400AFC6
:1013AC00FEE780B400AFFEE780B400AFFEE780B488
:1013BC0000AFFEE780B400AFFEE780B400AF00BF23
:1013CC00BD4680BC704780B400AF00BFBD4680BC3A
:1013DC00704780B400AF00BFBD4680BC704780B57D
:1013EC0000AF00F099F800BF80BD000080B500AFE1
:1013FC00024800F0E9FF00BF80BD00BF9400002050
:10140C0080B400AF00BFBD4680BC704780B582B0D1
:10141C0000AF78607B681B68B3F1804F0BD1FFF78E
:10142C0099FBFFF7AFFEFFF7E1FEFFF713FFFFF7A6
:10143C002BFFFFF743FF00BF0837BD4680BD000000
:10144C000C480D490D4A002302E0D458C450043313
:10145C00C4188C42F9D30A4A0A4C002301E01360E9
:10146C000432A242FBD3FFF7CBFF01F0F5FAFFF7F2
:10147C000BFC7047000000202C000020082B0008FB
:10148C002C000020E0000020FEE7000080B500AF3B
:10149C00084B1B68074A43F010031360032000F04D
:1014AC0023F90F2000F008F8FFF722FF002318465D
:1014BC0080BD00BF0020024080B582B000AF7860D4
:1014CC00124B1A68124B1B7819464FF47A73B3FB04
:1014DC00F1F3B2FBF3F3184600F03BF90346002B93
:1014EC0001D001230EE07B680F2B0AD8002279680B
:1014FC004FF0FF3000F003F9064A7B6813600023BD
:10150C0000E0012318460837BD4680BD20000020AE
:10151C00280000202400002080B400AF054B1B786D
:10152C001A46054B1B681344034A136000BFBD46A3
:10153C0080BC704728000020DC00002080B400AF85
:10154C00024B1B681846BD4680BC7047DC0000206F
:10155C0080B485B000AF78607B6803F00703FB6054
:10156C000C4BDB68BB60BA684FF6FF031340BB60E3
:10157C00FB681A02BB68134343F0BF6343F40033A8
:10158C00BB60044ABB68D36000BF1437BD4680BC47
:10159C00704700BF00ED00E080B400AF044BDB6887
:1015AC001B0A03F007031846BD4680BC704700BFFA
:1015BC0000ED00E080B483B000AF0346FB7197F9F7
:1015CC000730002B0BDBFB7903F01F02064997F960
:1015DC0007305B09012000FA02F241F8232000BF1A
:1015EC000C37BD4680BC704700E100E080B483B08E
:1015FC0000AF03463960FB7197F90730002B0ADB0B
:10160C003B68DAB20C4997F907301201D2B20B449D
:10161C0083F800230AE03B68DAB20849FB7903F04F
:10162C000F03043B1201D2B20B441A7600BF0C37E5
:10163C00BD4680BC704700BF00E100E000ED00E05B
:10164C0080B489B000AFF860B9607A60FB6803F0D1
:10165C000703FB61FB69C3F10703042B28BF0423B9
:10166C00BB61FB690433062B02D9FB69033B00E029
:10167C0000237B614FF0FF32BB6902FA03F3DA43BC
:10168C00BB681A407B699A404FF0FF317B6901FAC5
:10169C0003F3D9437B680B40134318462437BD46EC
:1016AC0080BC704780B582B000AF78607B68013B2E
:1016BC00B3F1807F01D301230FE00A4A7B68013B21
:1016CC0053600F214FF0FF30FFF790FF054B0022C6
:1016DC009A60044B07221A60002318460837BD464F
:1016EC0080BD00BF10E000E080B582B000AF786034
:1016FC007868FFF72DFF00BF0837BD4680BD80B569
:10170C0086B000AF0346B9607A60FB7300237B613F
:10171C00FFF742FF78617A68B9687869FFF790FF44
:10172C00024697F90F3011461846FFF75FFF00BFCE
:10173C001837BD4680BD80B582B000AF0346FB7143
:10174C0097F907301846FFF735FF00BF0837BD463D
:10175C0080BD80B582B000AF78607868FFF7A2FFDB
:10176C00034618460837BD4680BD000080B48BB0D8
:10177C0000AF7860396000237B6200233B6248E154
:10178C0001227B6A02FA03F3FB613B681B68FA696E
:10179C001340BB61BA69FB699A4240F037813B68E0
:1017AC005B68A34A93425ED0A14A934275D8A14A82
:1017BC00934258D09F4A93426FD89F4A934252D03B
:1017CC009D4A934269D89D4A93424CD09B4A93427E
:1017DC0063D89B4A934246D0994A93425DD8122BC8
:1017EC002AD8122B59D801A252F823F073180008EA
:1017FC004D1800085F180008A1180008A718000869
:10180C00A7180008A7180008A7180008A7180008B0
:10181C00A7180008A7180008A7180008A7180008A0
:10182C00A7180008A7180008A7180008A718000890
:10183C005518000869180008824A934213D02CE00E
:10184C003B68DB683B6229E03B68DB6804333B6246
:10185C0024E03B68DB6808333B621FE03B68DB68D5
:10186C000C333B621AE03B689B68002B02D10423CB
:10187C003B6213E03B689B68012B05D108233B625C
:10188C007B68FA691A6109E008233B627B68FA6994
:10189C005A6103E000233B6200E000BFBB69FF2BF1
:1018AC0001D87B6801E07B6804337B61BB69FF2B4B
:1018BC0002D87B6A9B0002E07B6A083B9B003B6181
:1018CC007B691A680F213B6901FA03F3DB431A4069
:1018DC00396A3B6901FA03F31A437B691A603B6866
:1018EC005B6803F08053002B00F09080564B9B6993
:1018FC00554A43F001039361534B9B6903F0010379
:10190C00BB60BB68514A7B6A9B08023352F8233098
:10191C00FB607B6A03F003039B000F2202FA03F3C4
:10192C00DB43FA681340FB607B68494A93420DD055
:10193C007B68484A934207D07B68474A934201D15F
:10194C00022304E0032302E0012300E000237A6A6F
:10195C0002F0030292009340FA681343FB603B4988
:10196C007B6A9B080233FA6841F823203B685B686A
:10197C0003F48033002B06D0384B1A683749BB6907
:10198C0013430B6006E0354B1A68BB69DB433349E4
:10199C0013400B603B685B6803F40033002B06D0EC
:1019AC002E4B5A682D49BB6913434B6006E02B4BF9
:1019BC005A68BB69DB43294913404B603B685B6841
:1019CC0003F48013002B06D0244B9A682349BB697F
:1019DC0013438B6006E0214B9A68BB69DB431F49BC
:1019EC0013408B603B685B6803F40013002B06D03C
:1019FC001A4BDA681949BB691343CB6006E0174BE5
:101A0C00DA68BB69DB4315491340CB607B6A013351
:101A1C007B623B681A687B6A22FA03F3002B7FF423
:101A2C00AFAE00BF00BF2C37BD4680BC704700BFB7
:101A3C0000003210000031100000221000002110B4
:101A4C0000001210000011100010024000000140B4
:101A5C0000080140000C014000100140000401404E
:101A6C0080B485B000AF78600B467B807B689A6849
:101A7C007B881340002B02D00123FB7301E0002371
:101A8C00FB73FB7B18461437BD4680BC704780B493
:101A9C0083B000AF78600B467B8013467B707B78FD
:101AAC00002B03D07A887B681A6103E07B881A04C8
:101ABC007B681A6100BF0C37BD4680BC70470000C4
:101ACC0080B586B000AF78607B68002B01D1012314
:101ADC006CE27B681B6803F00103002B00F087802D
:101AEC00924B5B6803F00C03042B0CD08F4B5B68A0
:101AFC0003F00C03082B12D18C4B5B6803F480337E
:101B0C00B3F5803F0BD1894B1B6803F40033002BDA
:101B1C006CD07B685B68002B68D1012346E27B6844
:101B2C005B68B3F5803F06D1804B1B687F4A43F45A
:101B3C00803313602EE07B685B68002B0CD17B4BF1
:101B4C001B687A4A23F480331360784B1B68774AFE
:101B5C0023F4802313601DE07B685B68B3F5A02F32
:101B6C000CD1724B1B68714A43F4802313606F4B8A
:101B7C001B686E4A43F4803313600BE06B4B1B689D
:101B8C006A4A23F480331360684B1B68674A23F45A
:101B9C00802313607B685B68002B13D0FFF7CEFCAF
:101BAC00386108E0FFF7CAFC02463B69D31A642B84
:101BBC0001D90323FAE15D4B1B6803F40033002BBE
:101BCC00F0D014E0FFF7BAFC386108E0FFF7B6FC80
:101BDC0002463B69D31A642B01D90323E6E1534B2C
:101BEC001B6803F40033002BF0D100E000BF7B68CE
:101BFC001B6803F00203002B63D04C4B5B6803F0B3
:101C0C000C03002B0BD0494B5B6803F00C03082B27
:101C1C001CD1464B5B6803F48033002B16D1434B2D
:101C2C001B6803F00203002B05D07B681B69012B9A
:101C3C0001D00123BAE13D4B1B6823F0F8027B680D
:101C4C005B69DB00394913430B603AE07B681B6925
:101C5C00002B20D0364B01221A60FFF76FFC386145
:101C6C0008E0FFF76BFC02463B69D31A022B01D943
:101C7C0003239BE12D4B1B6803F00203002BF0D0D8
:101C8C002A4B1B6823F0F8027B685B69DB00274951
:101C9C0013430B6015E0264B00221A60FFF74EFC35
:101CAC00386108E0FFF74AFC02463B69D31A022B65
:101CBC0001D903237AE11D4B1B6803F00203002BAF
:101CCC00F0D17B681B6803F00803002B3AD07B68CB
:101CDC009B69002B19D0174B01221A60FFF72EFCC1
:101CEC00386108E0FFF72AFC02463B69D31A022B45
:101CFC0001D903235AE10D4B5B6A03F00203002B5D
:101D0C00F0D0012000F0A6FA1CE00A4B00221A6069
:101D1C00FFF714FC38610FE0FFF710FC02463B693B
:101D2C00D31A022B08D9032340E100BF0010024054
:101D3C0000004242800442429E4B5B6A03F0020365
:101D4C00002BE9D17B681B6803F00403002B00F027
:101D5C00A6800023FB75974BDB6903F08053002BA7
:101D6C000DD1944BDB69934A43F08053D361914B73
:101D7C00DB6903F08053BB60BB680123FB758E4BA2
:101D8C001B6803F48073002B18D18B4B1B688A4A99
:101D9C0043F480731360FFF7D1FB386108E0FFF761
:101DAC00CDFB02463B69D31A642B01D90323FDE01A
:101DBC00814B1B6803F48073002BF0D07B68DB68CD
:101DCC00012B06D17B4B1B6A7A4A43F00103136249
:101DDC002DE07B68DB68002B0CD1764B1B6A754AB7
:101DEC0023F001031362734B1B6A724A23F0040342
:101DFC0013621CE07B68DB68052B0CD16D4B1B6AF6
:101E0C006C4A43F0040313626A4B1B6A694A43F041
:101E1C00010313620BE0674B1B6A664A23F0010354
:101E2C001362644B1B6A634A23F0040313627B68DE
:101E3C00DB68002B15D0FFF781FB38610AE0FFF758
:101E4C007DFB02463B69D31A41F28832934201D999
:101E5C000323ABE0574B1B6A03F00203002BEED0BD
:101E6C0014E0FFF76BFB38610AE0FFF767FB0246F3
:101E7C003B69D31A41F28832934201D9032395E08E
:101E8C004C4B1B6A03F00203002BEED1FB7D012BA4
:101E9C0005D1484BDB69474A23F08053D3617B68FB
:101EAC00DB69002B00F08180424B5B6803F00C0374
:101EBC00082B61D07B68DB69022B46D13F4B00229B
:101ECC001A60FFF73BFB386108E0FFF737FB02466F
:101EDC003B69D31A022B01D9032367E0354B1B68EE
:101EEC0003F00073002BF0D17B681B6AB3F5803FC5
:101EFC0008D1304B5B6823F400327B689B682D491A
:101F0C0013434B602B4B5B6823F474127B68196A88
:101F1C007B685B6A0B43274913434B60274B0122B9
:101F2C001A60FFF70BFB386108E0FFF707FB02466E
:101F3C003B69D31A022B01D9032337E01D4B1B68D5
:101F4C0003F00073002BF0D02FE01C4B00221A6022
:101F5C00FFF7F4FA386108E0FFF7F0FA02463B6944
:101F6C00D31A022B01D9032320E0124B1B6803F078
:101F7C000073002BF0D118E07B68DB69012B01D1D9
:101F8C00012313E00B4B5B68FB60FB6803F48032AE
:101F9C007B681B6A9A4206D1FB6803F470127B685B
:101FAC005B6A9A4201D0012300E0002318461837DF
:101FBC00BD4680BD001002400070004060004242EF
:101FCC0080B584B000AF786039607B68002B01D19C
:101FDC000123D0E06A4B1B6803F007033A689A426E
:101FEC0010D9674B1B6823F0070265493B68134304
:101FFC000B60634B1B6803F007033A689A4201D0ED
:10200C000123B8E07B681B6803F00203002B20D08F
:10201C007B681B6803F00403002B05D0594B5B68ED
:10202C00584A43F4E06353607B681B6803F0080371
:10203C00002B05D0534B5B68524A43F460535360FA
:10204C00504B5B6823F0F0027B689B684D4913434F
:10205C004B607B681B6803F00103002B40D07B684E
:10206C005B68012B07D1474B1B6803F40033002B33
:10207C0015D101237FE07B685B68022B07D1414BB4
:10208C001B6803F00073002B09D1012373E03D4B57
:10209C001B6803F00203002B01D101236BE0394BC9
:1020AC005B6823F003027B685B68364913434B6023
:1020BC00FFF744FAF8600AE0FFF740FA0246FB68C3
:1020CC00D31A41F28832934201D9032353E02D4BAA
:1020DC005B6803F00C027B685B689B009A42EBD157
:1020EC00274B1B6803F007033A689A4210D2244B23
:1020FC001B6823F0070222493B6813430B60204BFB
:10210C001B6803F007033A689A4201D0012332E0BE
:10211C007B681B6803F00403002B08D0194B5B6829
:10212C0023F4E0627B68DB68164913434B607B68E1
:10213C001B6803F00803002B09D0124B5B6823F4D7
:10214C0060527B681B69DB000E4913434B6000F047
:10215C0021F802460B4B5B681B0903F00F030A497D
:10216C00CB5C22FA03F3094A1360094B1B6818462F
:10217C00FFF7A2F9002318461037BD4680BD00BFFB
:10218C000020024000100240F02A0008200000202D
:10219C002400002090B48AB000AF2A4B3C1D0FCB1A
:1021AC0084E80F0040F201233B800023FB610023F5
:1021BC00BB6100237B6200237B6100233B62224BCB
:1021CC005B68FB61FB6903F00C03042B02D0082B4A
:1021DC0003D02DE01D4B3B622DE0FB699B0C03F003
:1021EC000F0307F12802134413F8243C7B61FB69AD
:1021FC0003F48033002B13D0134B5B685B0C03F0A0
:10220C00010307F12802134413F8283CBB617B69D6
:10221C000E4A02FB03F2BB69B2FBF3F37B6204E0F0
:10222C007B690B4A02FB03F37B627B6A3B6202E035
:10223C00064B3B6200BF3B6A18462837BD4690BC34
:10224C00704700BFE02A00080010024000127A001C
:10225C0000093D0080B485B000AF78600A4B1B6864
:10226C000A4AA2FB03235B0A7A6802FB03F3FB60B6
:10227C0000BFFB685A1EFA60002BF9D100BF00BFEB
:10228C001437BD4680BC704720000020D34D62102F
:10229C0080B582B000AF78607B68002B01D1012340
:1022AC0041E07B6893F83D30DBB2002B06D17B68B4
:1022BC00002283F83C207868FFF74CF87B680222F8
:1022CC0083F83D207B681A687B68043319461046F6
:1022DC0000F06AFA7B68012283F846207B680122B1
:1022EC0083F83E207B68012283F83F207B68012223
:1022FC0083F840207B68012283F841207B6801220F
:10230C0083F842207B68012283F843207B680122FA
:10231C0083F844207B68012283F845207B680122E6
:10232C0083F83D20002318460837BD4680BD0000C9
:10233C0080B485B000AF78607B6893F83D30DBB239
:10234C00012B01D0012335E07B68022283F83D206C
:10235C007B681B68DA687B681B6842F00102DA60F4
:10236C007B681B68164A934209D07B681B68B3F1E3
:10237C00804F04D07B681B68124A934211D17B6852
:10238C001B689B6803F00703FB60FB68062B10D0EF
:10239C007B681B681A687B681B6842F001021A6034
:1023AC0007E07B681B681A687B681B6842F00102B7
:1023BC001A60002318461437BD4680BC704700BF16
:1023CC00002C01400004004080B582B000AF786062
:1023DC007B681B681B6903F00203022B22D17B680C
:1023EC001B68DB6803F00203022B1BD17B681B68A4
:1023FC006FF002021A617B6801221A777B681B68F6
:10240C009B6903F00303002B03D0786800F0B1F94B
:10241C0005E0786800F0A4F9786800F0B3F97B68FF
:10242C0000221A777B681B681B6903F00403042BDA
:10243C0022D17B681B68DB6803F00403042B1BD1DF
:10244C007B681B686FF004021A617B6802221A77A2
:10245C007B681B689B6903F44073002B03D078687E
:10246C0000F087F905E0786800F07AF9786800F0F8
:10247C0089F97B6800221A777B681B681B6903F05B
:10248C000803082B22D17B681B68DB6803F0080368
:10249C00082B1BD17B681B686FF008021A617B68E4
:1024AC0004221A777B681B68DB6903F00303002B9B
:1024BC0003D0786800F05DF905E0786800F050F919
:1024CC00786800F05FF97B6800221A777B681B68DC
:1024DC001B6903F01003102B22D17B681B68DB688F
:1024EC0003F01003102B1BD17B681B686FF01002DC
:1024FC001A617B6808221A777B681B68DB6903F416
:10250C004073002B03D0786800F033F905E078684D
:10251C0000F026F9786800F035F97B6800221A770C
:10252C007B681B681B6903F00103012B0ED17B68D0
:10253C001B68DB6803F00103012B07D17B681B6868
:10254C006FF001021A617868FEF760FF7B681B6808
:10255C001B6903F08003802B0ED17B681B68DB6842
:10256C0003F08003802B07D17B681B686FF080021F
:10257C001A61786800F067FA7B681B681B6903F0C6
:10258C004003402B0ED17B681B68DB6803F04003D3
:10259C00402B07D17B681B686FF040021A6178688A
:1025AC0000F0F9F87B681B681B6903F02003202BF3
:1025BC000ED17B681B68DB6803F02003202B07D14E
:1025CC007B681B686FF020021A61786800F032FAA1
:1025DC0000BF0837BD4680BD80B584B000AF7860C1
:1025EC0039607B6893F83C30012B01D10223B3E0B6
:1025FC007B68012283F83C207B68022283F83D2013
:10260C007B681B689B68FB60FB6823F07703FB60AF
:10261C00FB6823F47F43FB607B681B68FA689A6055
:10262C003B681B68B3F5005F3ED0B3F5005F00F26A
:10263C008780B3F5805F00F08580B3F5805F7FD82D
:10264C00702B1AD0702B7BD8602B50D0602B77D886
:10265C00502B3CD0502B73D8402B58D0402B6FD8DC
:10266C00302B64D0302B6BD8202B60D0202B67D82C
:10267C00002B5CD0102B5AD062E07B6818683B684A
:10268C0099683B685A683B68DB6800F05CF97B68CA
:10269C001B689B68FB60FB6843F07703FB607B68FF
:1026AC001B68FA689A604EE07B6818683B6899680A
:1026BC003B685A683B68DB6800F045F97B681B682F
:1026CC009A687B681B6842F480429A603BE07B68A6
:1026DC0018683B6859683B68DB681A4600F0BCF820
:1026EC007B681B685021184600F013F92BE07B68BF
:1026FC0018683B6859683B68DB681A4600F0DAF8E2
:10270C007B681B686021184600F003F91BE07B68AE
:10271C0018683B6859683B68DB681A4600F09CF8FF
:10272C007B681B684021184600F0F3F80BE07B68CF
:10273C001A683B681B681946104600F0EAF802E07C
:10274C0000BF00E000BF7B68012283F83D207B685E
:10275C00002283F83C20002318461037BD4680BD6C
:10276C0080B483B000AF786000BF0C37BD4680BC2E
:10277C00704780B483B000AF786000BF0C37BD46A3
:10278C0080BC704780B483B000AF786000BF0C375A
:10279C00BD4680BC704780B483B000AF786000BF8A
:1027AC000C37BD4680BC704780B485B000AF7860F4
:1027BC0039607B681B68FB607B68254A934207D0B5
:1027CC007B68B3F1804F03D07B68224A934208D1D7
:1027DC00FB6823F07003FB603B685B68FA6813438B
:1027EC00FB607B681A4A934207D07B68B3F1804F39
:1027FC0003D07B68174A934208D1FB6823F44073DB
:10280C00FB603B68DB68FA681343FB60FB6823F0F2
:10281C0080023B685B691343FB607B68FA681A6053
:10282C003B689A687B68DA623B681A687B689A62D4
:10283C007B68074A934203D13B681A697B681A6329
:10284C007B6801225A6100BF1437BD4680BC7047BB
:10285C00002C01400004004080B487B000AFF86049
:10286C00B9607A60FB681B6A7B61FB681B6A23F0AA
:10287C000102FB681A62FB689B693B613B6923F0B0
:10288C00F0033B617B681B013A6913433B617B6935
:10289C0023F00A037B617A69BB6813437B61FB6895
:1028AC003A699A61FB687A691A6200BF1C37BD46A7
:1028BC0080BC704780B487B000AFF860B9607A60B4
:1028CC00FB681B6A23F01002FB681A62FB689B69A9
:1028DC007B61FB681B6A3B617B6923F470437B6102
:1028EC007B681B037A6913437B613B6923F0A0036C
:1028FC003B61BB681B013A6913433B61FB687A6916
:10290C009A61FB683A691A6200BF1C37BD4680BCED
:10291C00704780B485B000AF786039607B689B6885
:10292C00FB60FB6823F07003FB603A68FB681343A1
:10293C0043F00703FB607B68FA689A6000BF1437AA
:10294C00BD4680BC704780B487B000AFF860B960FA
:10295C007A603B60FB689B687B617B6923F47F43F7
:10296C007B613B681A027B681A43BB6813437A6924
:10297C0013437B61FB687A699A6000BF1C37BD46C4
:10298C0080BC704780B485B000AF786039607B68DC
:10299C0093F83C30012B01D1022341E07B680122EA
:1029AC0083F83C207B68022283F83D207B681B68FF
:1029BC005B68FB607B681B689B68BB60FB6823F0F3
:1029CC007003FB603B681B68FA681343FB607B6811
:1029DC001B68FA685A607B681B68144A934209D0DA
:1029EC007B681B68B3F1804F04D07B681B68104A6E
:1029FC0093420CD1BB6823F08003BB603B685B68DF
:102A0C00BA681343BB607B681B68BA689A607B68C2
:102A1C00012283F83D207B68002283F83C200023B0
:102A2C0018461437BD4680BC704700BF002C0140CF
:102A3C000004004080B483B000AF786000BF0C3756
:102A4C00BD4680BC704780B483B000AF786000BFD7
:102A5C000C37BD4680BC704770B500260C4D0D4C34
:102A6C00641BA410A64209D100F022F800260A4DDE
:102A7C000A4C641BA410A64205D170BD55F8043B4A
:102A8C0098470136EEE755F8043B98470136F2E7D4
:102A9C00002B0008002B0008002B0008042B00085A
:102AAC0003460244934200D1704703F8011BF9E737
:102ABC00F8B500BFF8BC08BC9E467047F8B500BF1F
:082ACC00F8BC08BC9E467047EF
:102AD4004079243019120278001000000203040522
:102AE400060708090A0B0C0D0E0F10100000000059
:0C2AF400000000000102030406070809AE
:042B00003101000897
:042B04000D010008B7
:102B080005000000030000000200000001010100B0
:102B18000100000001000000010000000A000000A0
:0C2B28000024F400100000000100000078
:040000050800144D8E
:00000001FF
